:100000000C945E000C9486000C9486000C94860080
:100010000C9486000C9486000C9486000C94860048
:100020000C9486000C9486000C9486000C94860038
:100030000C9486000C9486000C9486000C94860028
:100040000C94BD030C9486000C948B030C946503F4
:100050000C9486000C9486000C9486000C94860008
:100060000C9486000C9486000000000024002700F9
:100070002A0000000000250028002B0004040404CE
:100080000404040402020202020203030303030342
:10009000010204081020408001020408102001021F
:1000A00004081020000000080002010000030407FB
:1000B000000000000000000007044E0811241FBECD
:1000C000CFEFD8E0DEBFCDBF11E0A0E0B1E0EAE9BC
:1000D000F8E102C005900D92AC32B107D9F722E0E9
:1000E000ACE2B1E001C01D92A131B207E1F710E02E
:1000F000CDE5D0E004C02197FE010E94F90ACC357D
:10010000D107C9F70E947D040C94400C0C940000A8
:10011000E0913501F09136010190F081E02D682FDA
:1001200085E391E00994CF92DF92EF92FF920F93D3
:100130001F93CF93DF936C017A018B01C0E0D0E075
:10014000CE15DF0589F0D8016D918D01D601ED91B5
:10015000FC910190F081E02DC6010995892B11F4E5
:100160007E0102C02196ECCFC701DF91CF911F9194
:100170000F91FF90EF90DF90CF900895FC01918D4B
:10018000828D981761F0828DDF01A80FB11D5D96F9
:100190008C91928D9F5F9F73928F90E008958FEF67
:1001A0009FEF0895FC01918D828D981731F0828D1B
:1001B000E80FF11D858D90E008958FEF9FEF089572
:1001C000FC01918D228D892F90E0805C9F4F821BD6
:1001D00091098F739927089585E391E00E94E000CB
:1001E00021E0892B09F420E0822F0895FC01848D01
:1001F000DF01A80FB11DA35ABF4F2C91848D90E051
:1002000001968F739927848FA689B7892C93A0892B
:10021000B1898C9180648C93938D848D981306C0E2
:100220000288F389E02D80818F7D80830895EF928D
:10023000FF920F931F93CF93DF93EC0181E0888FA0
:100240009B8D8C8D981305C0E889F989808185FD87
:1002500024C0F62E0B8D10E00F5F1F4F0F73112778
:10026000E02E8C8DE8120CC00FB607FCFACFE8899F
:10027000F989808185FFF5CFCE010E94F600F1CF8C
:100280008B8DFE01E80FF11DE35AFF4FF0820B8FBB
:10029000EA89FB898081806207C0EE89FF896083DB
:1002A000E889F98980818064808381E090E0DF9132
:1002B000CF911F910F91FF90EF900895CF93DF930F
:1002C000EC01888D8823C9F0EA89FB89808185FD4E
:1002D00005C0A889B9898C9186FD0FC00FB607FCAF
:1002E000F5CF808185FFF2CFA889B9898C9185FFF0
:1002F000EDCFCE010E94F600E7CFDF91CF910895B8
:1003000080E090E0892B29F00E94EC0081110C9490
:100310000000089590E0FC01EC55FF4F3491FC0182
:10032000E057FF4F2491FC01E458FF4FE491EE2386
:1003300009F43BC0332339F1333091F038F43130D4
:10034000A9F0323001F584B58F7D12C0373091F0BD
:100350003830A1F03430B9F4809180008F7D03C033
:10036000809180008F77809380000DC084B58F7757
:1003700084BD09C08091B0008F7703C08091B00028
:100380008F7D8093B000F0E0EE0FFF1FEE58FF4F1F
:10039000A591B4918FB7F894EC91611103C02095A9
:1003A0002E2301C02E2B2C938FBF0895CF93DF9364
:1003B00090E0FC01E057FF4F2491FC01E458FF4F0F
:1003C0008491882361F190E0880F991FFC01E8591E
:1003D000FF4FC591D491FC01EE58FF4FA591B49108
:1003E000611109C09FB7F894888120958223888382
:1003F000EC912E230BC0623061F49FB7F8943881E2
:10040000822F809583238883EC912E2B2C939FBF82
:1004100006C08FB7F894E8812E2B28838FBFDF9119
:10042000CF910895809105028F3F61F061E00E94B5
:10043000D60160E0809105020E948A018BE193E081
:100440000197F1F708951F93CF93DF93182FEB01D6
:1004500061E00E94D601209711F460E004C0CF3F14
:10046000D10539F461E0812FDF91CF911F910C9478
:100470008A01E12FF0E0EC55FF4FE491E330F9F011
:1004800048F4E130B9F0E230A1F584B5806284BD72
:10049000C8BD34C0E730E9F0E83019F1E43049F57F
:1004A00080918000806280938000D0938B00C09305
:1004B0008A0024C084B5806884BDC7BD1FC08091F8
:1004C0008000806880938000D0938900C09388006A
:1004D00015C08091B00080688093B000C093B300D5
:1004E0000DC08091B00080628093B000C093B400D2
:1004F00005C0C038D1050CF0B5CFAFCFDF91CF919B
:100500001F910895CF93DF93FC019B018285938512
:10051000892B09F458C080E09485891748F4D901E3
:10052000A80FB11DA80FB11D1D921C928F5FF4CFB3
:1005300050E0828940E0581778F58485481750F5D7
:10054000A42FB0E0C285D385CA0FDB1F98819E30EF
:1005500008F09E509770906490937C0080917A0090
:10056000806480937A0080917A0086FDFCCF809130
:1005700078006091790090E0962BAA0FBB1FA20F24
:10058000B31F6D917C911197860F971F8D939C934C
:100590004F5FD3CF5F5FCDCF84854817A0F4E901CB
:1005A000C40FD11DC40FD11D628970E0DB01B59568
:1005B000A795888199818A0F9B1F0E94910A798350
:1005C00068834F5FE9CFDF91CF910895009769F07D
:1005D000FC0101900020E9F73197AF01481B590B4E
:1005E000BC0185E391E00C94930080E090E00895D5
:1005F0008F929F92AF92BF920F931F93CF93DF93EF
:10060000CDB7DEB7A1970FB6F894DEBF0FBECDBF52
:1006100019A2423008F44AE08E010F5D1F4F842E6C
:10062000912CA12CB12CA50194010E94A50AE62FC2
:10063000B901CA0101501109EA3014F4E05D01C0AA
:10064000E95CD801EC93232B242B252B61F7C801FF
:100650000E94E602A1960FB6F894DEBF0FBECDBF92
:10066000DF91CF911F910F91BF90AF909F908F908E
:1006700008950E943B0CCF93DF93EC0186E291E05A
:10068000998388838A859B85009711F00E94A30B2C
:100690008C819D81009711F00E94A30B888599851C
:1006A000009711F00E94A30B8A819B81009711F0A3
:1006B0000E94A30B8E819F81009721F0DF91CF9143
:1006C0000C94A30BDF91CF9108951F920F920FB658
:1006D0000F9211242F933F934F935F936F937F93C8
:1006E0008F939F93AF93BF93EF93FF9385E391E035
:1006F0000E94F600FF91EF91BF91AF919F918F9172
:100700007F916F915F914F913F912F910F900FBE0D
:100710000F901F9018951F920F920FB60F921124F1
:100720002F938F939F93EF93FF93E0914501F09167
:1007300046018081E0914B01F0914C0182FD12C095
:10074000908180914E018F5F8F7320914F018217AE
:1007500051F0E0914E01F0E0EB5CFE4F958F8093FD
:100760004E0101C08081FF91EF919F918F912F9158
:100770000F900FBE0F901F9018951F920F920FB6FB
:100780000F9211242F933F938F939F93AF93BF9317
:100790008091310190913201A0913301B0913401E7
:1007A0003091300123E0230F2D3720F40196A11D55
:1007B000B11D05C026E8230F0296A11DB11D20938F
:1007C00030018093310190933201A0933301B093B3
:1007D000340180912C0190912D01A0912E01B091B6
:1007E0002F010196A11DB11D80932C0190932D0125
:1007F000A0932E01B0932F01BF91AF919F918F9144
:100800003F912F910F900FBE0F901F901895CF938F
:10081000DF93E5E3F1E01382128288EE93E0A0E03B
:10082000B0E084839583A683B78380E191E09183D0
:10083000808385EC90E09587848784EC90E09787AF
:10084000868780EC90E0918B808B81EC90E0938B9D
:10085000828B82EC90E0958B848B86EC90E0978B7A
:10086000868B118E128E138E148EC2EED1E084E030
:10087000888396E099838A8382E08B8386E0E6E032
:10088000F1E0A6EEB1E001900D928A95E1F780E2E9
:1008900091E09F8B8E8B198E188E1B8E1A8E1D8E5B
:1008A0001C8E1F8E1E8E19A218A2E2EDF1E082E8C6
:1008B00090E09183808386EE90E0938382838DEC39
:1008C0009CECACECBDE384839583A683B78380E086
:1008D00090E0A0E8BFE380879187A287B38783E099
:1008E00090E09787868761E08CE00E94D60161E006
:1008F0008DE0DF91CF910C94D601CF93DF93CDB7EC
:10090000DEB7C156D1090FB6F894DEBF0FBECDBF1A
:10091000789484B5826084BD84B5816084BD85B5DA
:10092000826085BD85B5816085BD80916E008160E6
:1009300080936E001092810080918100826080938C
:10094000810080918100816080938100809180008E
:100950008160809380008091B10084608093B100B9
:100960008091B00081608093B00080917A008460B3
:1009700080937A0080917A00826080937A008091DF
:100980007A00816080937A0080917A0080688093F9
:100990007A001092C100E0914501F091460182E099
:1009A0008083E0914101F09142011082E091430186
:1009B000F09144018FEC808310924D01E091490148
:1009C000F0914A0186E08083E0914701F09148016F
:1009D000808180618083E0914701F09148018081AE
:1009E00088608083E0914701F091480180818068B0
:1009F0008083E0914701F091480180818F7D808361
:100A00000091E5011091E4018091E30120E231E0E1
:100A10003A8329831C821B821E821D8218861F82B4
:100A20001A8619861C861B861A8A198A813108F053
:100A300080E18D878D8590E00E940E0B9C878B87CF
:100A4000892B99F080E09D85891770F4282F30E07C
:100A5000F901EE51FE4F94814B855C85FA01E20F5E
:100A6000F31F90838F5FEFCF0E871B8B8FEF93E089
:100A7000988B8F872B813C813093FB012093FA0167
:100A80002D813E813093FD012093FC012F8138851B
:100A90003093FF012093FE0129853A8530930102AE
:100AA000209300022B853C853093030220930202A1
:100AB0002D85209304022E85209305029093070232
:100AC0008093060289899A8990930902809308028B
:100AD00010930A0280E291E09A838983CE01019605
:100AE0000E943B0361E08DE00E948A01E12CF12C21
:100AF000EBE16E2EE3E07E2EB7010F2C000C880B8D
:100B0000990B0E9474094B015C018091E201682FEE
:100B100070E080E090E00E9474092DEC3CEC4CEC1D
:100B20005CE30E94CA089B01AC01C501B4010E94AC
:100B3000C50887FFDAC08091FC019091FD01892BE7
:100B400039F08091FA019091FB01892BD1F41CC0FE
:100B50000091040210E0C801880F991F0E940E0B3B
:100B60009093FD018093FC01009709F4BAC0FC0149
:100B700080E090E08017910724F71192119201967E
:100B8000F9CF00E010E01DC00091040210E0C801A0
:100B9000880F991F0E940E0B9093FB018093FA011E
:100BA000009709F49EC02091060230910702FC01D3
:100BB00080E090E08017910724F72193319301960C
:100BC000F9CF809105028F3F59F061E00E94D60174
:100BD00061E0809105020E948A01C3010197F1F74B
:100BE000E091F801F091F9010190F081E02DBE0152
:100BF0006F5B7F4F88EF91E009950E941202809011
:100C00000402912CAE014F5F5F4FFE01EF5BFF4F7F
:100C10009E012F5D3F4F5901C9012A0120E030E0BC
:100C2000281539054CF50115110589F0DC01CD9029
:100C3000DC9060817181C616D70648F0D201CD9054
:100C4000DC90608171816C157D0548F00DC060817C
:100C50007181DC016D937C930115110579F7608139
:100C60007181D2016D937C932F5F3F4FB2E04B0EA9
:100C7000511C32960296D4CF0F5F1F4F0A301105D8
:100C800009F09FCFA091FA01B091FB010091FC0106
:100C90001091FD0120E030E08091040290E02817DF
:100CA0003907FCF4FA0181919191AF01F80160815B
:100CB00071816817790710F491838083F501819120
:100CC00091915F016D917C9111978617970718F4A8
:100CD00011969C938E932F5F3F4F12960E5F1F4F7E
:100CE000DBCFFFEFEF1AFF0A07CF60E08DE00E9435
:100CF0008A0100E010E08091E30190E008171907F5
:100D0000B4F4C801880F991FE091FA01F091FB013A
:100D1000E80FF91F6081718180E090E04AE00E9455
:100D2000F80280E20E9488000F5F1F4FE4CF88E244
:100D300091E00E94E60200E010E08091E30190E083
:100D400008171907B4F4C801880F991FE091FC0136
:100D5000F091FD01E80FF91F6081718180E090E062
:100D60004AE00E94F80280E20E9488000F5F1F4F55
:100D7000E4CF81E090E09093E1018093E00134EFD3
:100D8000C32EDD24D3948091FA019091FB01892B2D
:100D9000A1F4E0910402A296EFAFA2972CEEE22E0E
:100DA00021E0F22E412C512C3201E0E0F0E0812CC8
:100DB000912C5401212C312C7FC08091FC01909109
:100DC000FD01892B31F3809105028F3F61F061E0D5
:100DD0000E94D60161E0809105020E948A018BE1A8
:100DE00093E00197F1F7E091F801F091F90101909A
:100DF000F081E02D6CEE71E088EF91E009950E94A2
:100E000012029CEEE92E91E0F92EA090FC01B09028
:100E1000FD018090FA019090FB0100E010E08091CC
:100E2000040290E0081719070CF0B3CFD501ED913B
:100E3000FD915D01D4018D919D914D01E81BF90B50
:100E4000C1F0D7012D913C91A90160E070E09A01B9
:100E5000AB01281B390B41095109A8EEB3E00E94F0
:100E6000E60A9F0140E050E00E94C70A37FD0AC031
:100E700002C020E030E0293EB3E03B072CF028EE32
:100E800033E002C020E030E0F701219331937F018D
:100E90000F5F1F4FC4CFD7010D911D917D01093CFC
:100EA000110584F4033311057CF43394B8EE4B0E32
:100EB000B3E05B1E611C711CA2962FADA29732128B
:100EC000EACF0EC022242394D801A30192010E94EC
:100ED000F10A860E971EA81EB91EE00FF11FE5CF7E
:100EE00021101BC0832D90E001978C9D90018D9D5A
:100EF000300D9C9D300D1124409108025091090243
:100F000042175307BCF0A8EEB3E08A9FB0018B9F55
:100F1000700D9A9F700D11240FC09F0140E050E0AA
:100F2000C501B4010E94A50AB901309309022093BA
:100F3000080202C060E070E070930C0260930B0244
:100F400010E08091E301181790F4E12FF0E0EE0F2C
:100F5000FF1FE451FE4F6081718180E090E04AE024
:100F60000E94F80289E00E9488001F5FEACF80900B
:100F70000B0290900C02B4EC8B1AB9E09B0A092C7E
:100F8000000CAA08BB08B7FE0CC08DE20E948800C6
:100F900066277727CB01681979098A099B094AE0F6
:100FA00003C04AE0C501B4010E94F80288E291E062
:100FB0000E94E60200910B0210910C028091E00168
:100FC0009091E101039709F466C0045C1940B801EF
:100FD000012E000C880B990B0E9474092091D601F8
:100FE0003091D7014091D8015091D9010E94240A33
:100FF0004B015C018091DE019091DF01B801681B1B
:10100000790B072E000C880B990B0E947409209114
:10101000DA013091DB014091DC015091DD010E9449
:10102000240A9B01AC01C501B4010E9459080E9429
:101030003C094B015C011093DF010093DE0100913C
:10104000D2011091D301061B170B8091D40190910E
:10105000D5018017910708F48C0161E08DE00E94B2
:101060008A01B8018BE00E9423028091D201909105
:10107000D301880E991E8091D4019091D5018815D5
:10108000990508F44C0161E08CE00E948A01B401EA
:1010900083E00E9423020E94800175CE80E291E0ED
:1010A0009093F9018093F80188EF91E00C943B0351
:1010B0005058BB27AA270E9470080C94EA090E9486
:1010C000DC0938F00E94E30920F039F49F3F19F45D
:1010D00026F40C94D9090EF4E095E7FB0C94D3099F
:1010E000E92F0E94FB0958F3BA17620773078407B8
:1010F000950720F079F4A6F50C941D0A0EF4E095FE
:101100000B2EBA2FA02D0B01B90190010C01CA01C1
:10111000A0011124FF27591B99F0593F50F4503E6C
:1011200068F11A16F040A22F232F342F4427585F5E
:10113000F3CF469537952795A795F0405395C9F776
:101140007EF41F16BA0B620B730B840BBAF091502E
:10115000A1F0FF0FBB1F661F771F881FC2F70EC0CD
:10116000BA0F621F731F841F48F4879577956795A0
:10117000B795F7959E3F08F0B0CF9395880F08F08C
:101180009927EE0F9795879508950E94AF0908F467
:1011900081E008950E94DE080C94EA090E94E309A8
:1011A00058F00E94DC0940F029F45F3F29F00C94CC
:1011B000D30951110C941E0A0C94D9090E94FB0901
:1011C00068F39923B1F3552391F3951B550BBB2776
:1011D000AA2762177307840738F09F5F5F4F220FBB
:1011E000331F441FAA1FA9F335D00E2E3AF0E0E8B2
:1011F00032D091505040E695001CCAF72BD0FE2FFC
:1012000029D0660F771F881FBB1F2617370748078F
:10121000AB07B0E809F0BB0B802DBF01FF27935847
:101220005F4F3AF09E3F510578F00C94D3090C942F
:101230001E0A5F3FE4F3983ED4F386957795679551
:10124000B795F7959F5FC9F7880F911D969587957C
:1012500097F90895E1E0660F771F881FBB1F62179B
:1012600073078407BA0720F0621B730B840BBA0B59
:10127000EE1F88F7E09508950E9443096894B11124
:101280000C941E0A08950E94030A88F09F5798F054
:10129000B92F9927B751B0F0E1F0660F771F881F7B
:1012A000991F1AF0BA95C9F714C0B13091F00E9495
:1012B0001D0AB1E008950C941D0A672F782F882726
:1012C000B85F39F0B93FCCF3869577956795B395BC
:1012D000D9F73EF490958095709561957F4F8F4F2B
:1012E0009F4F0895E89409C097FB3EF49095809530
:1012F000709561957F4F8F4F9F4F9923A9F0F92FDC
:1013000096E9BB279395F695879577956795B79559
:10131000F111F8CFFAF4BB0F11F460FF1BC06F5F3F
:101320007F4F8F4F9F4F16C0882311F096E911C051
:10133000772321F09EE8872F762F05C0662371F072
:1013400096E8862F70E060E02AF09A95660F771F86
:10135000881FDAF7880F9695879597F90895990F62
:101360000008550FAA0BE0E8FEEF16161706E8076F
:10137000F907C0F012161306E407F50798F0621B90
:10138000730B840B950B39F40A2661F0232B242B65
:10139000252B21F408950A2609F4A140A6958FEF84
:1013A000811D811D089597F99F6780E870E060E0D6
:1013B00008959FEF80EC089500240A9416161706EE
:1013C00018060906089500240A9412161306140636
:1013D00005060895092E0394000C11F4882352F099
:1013E000BB0F40F4BF2B11F460FF04C06F5F7F4F51
:1013F0008F4F9F4F089557FD9058440F551F59F038
:101400005F3F71F04795880F97FB991F61F09F3FF1
:1014100079F087950895121613061406551FF2CF1A
:101420004695F1DF08C0161617061806991FF1CF6A
:1014300086957105610508940895E894BB27662791
:101440007727CB0197F908950E94370A0C94EA098F
:101450000E94DC0938F00E94E30920F0952311F086
:101460000C94D3090C94D90911240C941E0A0E94DF
:10147000FB0970F3959FC1F3950F50E0551F629FD4
:10148000F001729FBB27F00DB11D639FAA27F00DDD
:10149000B11DAA1F649F6627B00DA11D661F829F04
:1014A0002227B00DA11D621F739FB00DA11D621FE9
:1014B000839FA00D611D221F749F3327A00D611D06
:1014C000231F849F600D211D822F762F6A2F1124E8
:1014D0009F5750409AF0F1F088234AF0EE0FFF1F1B
:1014E000BB1F661F771F881F91505040A9F79E3F72
:1014F000510580F00C94D3090C941E0A5F3FE4F36D
:10150000983ED4F3869577956795B795F795E795C7
:101510009F5FC1F7FE2B880F911D9695879597F9D0
:101520000895AA1BBB1B51E107C0AA1FBB1FA6172A
:10153000B70710F0A61BB70B881F991F5A95A9F77C
:1015400080959095BC01CD010895A1E21A2EAA1BA9
:10155000BB1BFD010DC0AA1FBB1FEE1FFF1FA21763
:10156000B307E407F50720F0A21BB30BE40BF50B60
:10157000661F771F881F991F1A9469F760957095E9
:10158000809590959B01AC01BD01CF010895052E7A
:1015900097FB1EF400940E94DE0A57FD07D00E94BC
:1015A000A50A07FC03D04EF40C94DE0A5095409532
:1015B000309521953F4F4F4F5F4F089590958095FF
:1015C000709561957F4F8F4F9F4F08950E94FF0A3E
:1015D000A59F900DB49F900DA49F800D911D112487
:1015E0000895B7FF0C94E60A0E94E60A821B930B4B
:1015F0000895EE0FFF1F0590F491E02D0994A29F2E
:10160000B001B39FC001A39F700D811D1124911DD6
:10161000B29F700D811D1124911D0895CF93DF930A
:101620008230910510F482E090E0E0910F02F09199
:10163000100220E030E0C0E0D0E0309711F14081AE
:10164000518148175907C0F04817590761F4828142
:101650009381209719F09B838A832BC0909310026B
:1016600080930F0226C02115310519F04217530748
:1016700018F49A01BE01DF01EF010280F381E02D31
:10168000DCCF2115310509F1281B390B2430310538
:1016900090F412968D919C9113976115710521F02C
:1016A000FB019383828304C09093100280930F0206
:1016B000FD01329644C0FD01E20FF31F8193919327
:1016C000225031092D933C933AC020910D02309164
:1016D0000E02232B41F4209102013091030130933B
:1016E0000E0220930D02209100013091010121157D
:1016F000310541F42DB73EB74091040150910501E9
:10170000241B350BE0910D02F0910E02E217F30756
:10171000A0F42E1B3F0B2817390778F0AC014E5F61
:101720005F4F2417350748F04E0F5F1F50930E028E
:1017300040930D028193919302C0E0E0F0E0CF016D
:10174000DF91CF9108950F931F93CF93DF9300976D
:1017500009F48CC0FC0132971382128200910F02AF
:10176000109110020115110581F420813181820F41
:10177000931F20910D0230910E022817390779F539
:10178000F0930E02E0930D0271C0D80140E050E0EA
:10179000AE17BF0750F412962D913C911397AD01EF
:1017A0002115310509F1D901F3CF9D01DA01338308
:1017B000228360817181860F971F8217930769F4D6
:1017C000EC0128813981260F371F2E5F3F4F31836F
:1017D00020838A819B8193838283452B29F4F09314
:1017E0001002E0930F0242C01396FC93EE931297FF
:1017F000ED01499159919E01240F351FE217F3071E
:1018000071F480819181840F951F029611969C93AB
:101810008E938281938113969C938E931297E0E02E
:10182000F0E0D80112968D919C911397009719F0D2
:10183000F8018C01F6CF8D919C9198012E5F3F4F5E
:10184000820F931F20910D0230910E022817390745
:1018500069F4309729F41092100210920F0202C01E
:101860001382128210930E0200930D02DF91CF912A
:101870001F910F91089581E090E0F8940C94400C32
:1018800010E0CDE5D0E004C0FE010E94F90A2196E7
:0A189000CE35D107C9F7F894FFCF59
:10189A00000011028000000102030405000000009C
:1018AA0017019300E000BE00D2005E0100000000B4
:0C18BA0082020000000039030D0A00004B
:00000001FF
